{
  "_format": "hh-sol-artifact-1",
  "contractName": "FarmerMarket",
  "sourceName": "contracts/contracts/FarmerMarket.sol",
  "abi": [
    {
      "anonymous": false,
      "inputs": [
        {
          "indexed": true,
          "internalType": "address",
          "name": "buyer",
          "type": "address"
        },
        {
          "indexed": false,
          "internalType": "string",
          "name": "item",
          "type": "string"
        },
        {
          "indexed": false,
          "internalType": "uint256",
          "name": "quantity",
          "type": "uint256"
        },
        {
          "indexed": false,
          "internalType": "uint256",
          "name": "pricePerKg",
          "type": "uint256"
        }
      ],
      "name": "BuyerRegistered",
      "type": "event"
    },
    {
      "anonymous": false,
      "inputs": [
        {
          "indexed": true,
          "internalType": "address",
          "name": "farmer",
          "type": "address"
        },
        {
          "indexed": false,
          "internalType": "string",
          "name": "item",
          "type": "string"
        },
        {
          "indexed": false,
          "internalType": "uint256",
          "name": "quantity",
          "type": "uint256"
        },
        {
          "indexed": false,
          "internalType": "uint256",
          "name": "pricePerKg",
          "type": "uint256"
        }
      ],
      "name": "ListingRegistered",
      "type": "event"
    },
    {
      "anonymous": false,
      "inputs": [
        {
          "indexed": true,
          "internalType": "address",
          "name": "buyer",
          "type": "address"
        },
        {
          "indexed": true,
          "internalType": "address",
          "name": "farmer",
          "type": "address"
        },
        {
          "indexed": false,
          "internalType": "string",
          "name": "item",
          "type": "string"
        },
        {
          "indexed": false,
          "internalType": "uint256",
          "name": "quantity",
          "type": "uint256"
        },
        {
          "indexed": false,
          "internalType": "uint256",
          "name": "pricePerKg",
          "type": "uint256"
        }
      ],
      "name": "MatchFound",
      "type": "event"
    },
    {
      "inputs": [
        {
          "internalType": "address",
          "name": "buyer",
          "type": "address"
        },
        {
          "internalType": "string",
          "name": "item",
          "type": "string"
        },
        {
          "internalType": "uint256",
          "name": "quantity",
          "type": "uint256"
        },
        {
          "internalType": "uint256",
          "name": "pricePerKg",
          "type": "uint256"
        }
      ],
      "name": "executeMatch",
      "outputs": [],
      "stateMutability": "nonpayable",
      "type": "function"
    },
    {
      "inputs": [],
      "name": "getBuyers",
      "outputs": [
        {
          "components": [
            {
              "internalType": "address",
              "name": "buyer",
              "type": "address"
            },
            {
              "internalType": "string",
              "name": "name",
              "type": "string"
            },
            {
              "internalType": "string",
              "name": "item",
              "type": "string"
            },
            {
              "internalType": "uint256",
              "name": "quantity",
              "type": "uint256"
            },
            {
              "internalType": "uint256",
              "name": "pricePerKg",
              "type": "uint256"
            }
          ],
          "internalType": "struct FarmerMarket.BuyerRequest[]",
          "name": "",
          "type": "tuple[]"
        }
      ],
      "stateMutability": "view",
      "type": "function"
    },
    {
      "inputs": [],
      "name": "getListings",
      "outputs": [
        {
          "components": [
            {
              "internalType": "address",
              "name": "farmer",
              "type": "address"
            },
            {
              "internalType": "string",
              "name": "name",
              "type": "string"
            },
            {
              "internalType": "string",
              "name": "item",
              "type": "string"
            },
            {
              "internalType": "uint256",
              "name": "quantity",
              "type": "uint256"
            },
            {
              "internalType": "uint256",
              "name": "pricePerKg",
              "type": "uint256"
            }
          ],
          "internalType": "struct FarmerMarket.Listing[]",
          "name": "",
          "type": "tuple[]"
        }
      ],
      "stateMutability": "view",
      "type": "function"
    },
    {
      "inputs": [
        {
          "internalType": "string",
          "name": "item",
          "type": "string"
        },
        {
          "internalType": "uint256",
          "name": "quantity",
          "type": "uint256"
        },
        {
          "internalType": "uint256",
          "name": "minPrice",
          "type": "uint256"
        }
      ],
      "name": "getMatchingBuyer",
      "outputs": [
        {
          "components": [
            {
              "internalType": "address",
              "name": "buyer",
              "type": "address"
            },
            {
              "internalType": "string",
              "name": "name",
              "type": "string"
            },
            {
              "internalType": "string",
              "name": "item",
              "type": "string"
            },
            {
              "internalType": "uint256",
              "name": "quantity",
              "type": "uint256"
            },
            {
              "internalType": "uint256",
              "name": "pricePerKg",
              "type": "uint256"
            }
          ],
          "internalType": "struct FarmerMarket.BuyerRequest",
          "name": "",
          "type": "tuple"
        },
        {
          "internalType": "bool",
          "name": "found",
          "type": "bool"
        }
      ],
      "stateMutability": "view",
      "type": "function"
    },
    {
      "inputs": [
        {
          "internalType": "string",
          "name": "item",
          "type": "string"
        },
        {
          "internalType": "uint256",
          "name": "quantity",
          "type": "uint256"
        },
        {
          "internalType": "uint256",
          "name": "maxPrice",
          "type": "uint256"
        }
      ],
      "name": "getMatchingListing",
      "outputs": [
        {
          "components": [
            {
              "internalType": "address",
              "name": "farmer",
              "type": "address"
            },
            {
              "internalType": "string",
              "name": "name",
              "type": "string"
            },
            {
              "internalType": "string",
              "name": "item",
              "type": "string"
            },
            {
              "internalType": "uint256",
              "name": "quantity",
              "type": "uint256"
            },
            {
              "internalType": "uint256",
              "name": "pricePerKg",
              "type": "uint256"
            }
          ],
          "internalType": "struct FarmerMarket.Listing",
          "name": "",
          "type": "tuple"
        }
      ],
      "stateMutability": "view",
      "type": "function"
    },
    {
      "inputs": [],
      "name": "getTotalBuyers",
      "outputs": [
        {
          "internalType": "uint256",
          "name": "",
          "type": "uint256"
        }
      ],
      "stateMutability": "view",
      "type": "function"
    },
    {
      "inputs": [],
      "name": "getTotalListings",
      "outputs": [
        {
          "internalType": "uint256",
          "name": "",
          "type": "uint256"
        }
      ],
      "stateMutability": "view",
      "type": "function"
    },
    {
      "inputs": [
        {
          "internalType": "string",
          "name": "name",
          "type": "string"
        },
        {
          "internalType": "string",
          "name": "item",
          "type": "string"
        },
        {
          "internalType": "uint256",
          "name": "quantity",
          "type": "uint256"
        },
        {
          "internalType": "uint256",
          "name": "pricePerKg",
          "type": "uint256"
        }
      ],
      "name": "registerBuyer",
      "outputs": [],
      "stateMutability": "nonpayable",
      "type": "function"
    },
    {
      "inputs": [
        {
          "internalType": "string",
          "name": "name",
          "type": "string"
        },
        {
          "internalType": "string",
          "name": "item",
          "type": "string"
        },
        {
          "internalType": "uint256",
          "name": "quantity",
          "type": "uint256"
        },
        {
          "internalType": "uint256",
          "name": "pricePerKg",
          "type": "uint256"
        }
      ],
      "name": "registerListing",
      "outputs": [],
      "stateMutability": "nonpayable",
      "type": "function"
    }
  ],
  "bytecode": "0x608060405234801561001057600080fd5b50611fe8806100206000396000f3fe608060405234801561001057600080fd5b50600436106100935760003560e01c8063e97b768911610066578063e97b768914610131578063f1b2d6a31461014f578063f5f8a3021461016d578063f64bfaba14610189578063fbf30c35146101a757610093565b80636b1d93a414610098578063939ddbe7146100b45780639a9fe8fe146100d0578063c556e8d114610101575b600080fd5b6100b260048036038101906100ad9190611222565b6101c5565b005b6100ce60048036038101906100c9919061131f565b610394565b005b6100ea60048036038101906100e591906113a2565b610403565b6040516100f8929190611546565b60405180910390f35b61011b600480360381019061011691906113a2565b610745565b60405161012891906115f3565b60405180910390f35b610139610a46565b6040516101469190611624565b60405180910390f35b610157610a53565b604051610164919061177e565b60405180910390f35b61018760048036038101906101829190611222565b610c40565b005b610191610e0f565b60405161019e91906118df565b60405180910390f35b6101af610ffc565b6040516101bc9190611624565b60405180910390f35b60008211610208576040517f08c379a00000000000000000000000000000000000000000000000000000000081526004016101ff90611984565b60405180910390fd5b6000811161024b576040517f08c379a0000000000000000000000000000000000000000000000000000000008152600401610242906119f0565b60405180910390fd5b60006040518060a001604052803373ffffffffffffffffffffffffffffffffffffffff16815260200186815260200185815260200184815260200183815250908060018154018082558091505060019003906000526020600020906005020160009091909190915060008201518160000160006101000a81548173ffffffffffffffffffffffffffffffffffffffff021916908373ffffffffffffffffffffffffffffffffffffffff160217905550602082015181600101908161030f9190611c1c565b5060408201518160020190816103259190611c1c565b50606082015181600301556080820151816004015550503373ffffffffffffffffffffffffffffffffffffffff167f2899a2ecf46f2b05977a49b73e91787ef66b71c0be05219bf8ef8f19926ecf8784848460405161038693929190611d27565b60405180910390a250505050565b3373ffffffffffffffffffffffffffffffffffffffff168473ffffffffffffffffffffffffffffffffffffffff167fc908ce46d7f94adadf6356a09ae4eaa2bb8a346b02555e8ecc862e9626463e118585856040516103f593929190611d27565b60405180910390a350505050565b61040b611008565b600080600090505b6001805490508110156106d757856040516020016104319190611da1565b604051602081830303815290604052805190602001206001828154811061045b5761045a611db8565b5b906000526020600020906005020160020160405160200161047c9190611e6a565b604051602081830303815290604052805190602001201480156104c4575084600182815481106104af576104ae611db8565b5b90600052602060002090600502016003015410155b80156104f5575083600182815481106104e0576104df611db8565b5b90600052602060002090600502016004015410155b156106c4576001818154811061050e5761050d611db8565b5b90600052602060002090600502016001816040518060a00160405290816000820160009054906101000a900473ffffffffffffffffffffffffffffffffffffffff1673ffffffffffffffffffffffffffffffffffffffff1673ffffffffffffffffffffffffffffffffffffffff16815260200160018201805461059090611a3f565b80601f01602080910402602001604051908101604052809291908181526020018280546105bc90611a3f565b80156106095780601f106105de57610100808354040283529160200191610609565b820191906000526020600020905b8154815290600101906020018083116105ec57829003601f168201915b5050505050815260200160028201805461062290611a3f565b80601f016020809104026020016040519081016040528092919081815260200182805461064e90611a3f565b801561069b5780601f106106705761010080835404028352916020019161069b565b820191906000526020600020905b81548152906001019060200180831161067e57829003601f168201915b50505050508152602001600382015481526020016004820154815250509150925092505061073d565b80806106cf90611eb0565b915050610413565b506040518060a00160405280600073ffffffffffffffffffffffffffffffffffffffff1681526020016040518060200160405280600081525081526020016040518060200160405280600081525081526020016000815260200160008152506000915091505b935093915050565b61074d61104d565b60005b6000805490508110156109dd5784805190602001206000828154811061077957610778611db8565b5b90600052602060002090600502016002016040516107979190611f9b565b60405180910390201480156107d1575083600082815481106107bc576107bb611db8565b5b90600052602060002090600502016003015410155b8015610802575082600082815481106107ed576107ec611db8565b5b90600052602060002090600502016004015411155b156109ca576000818154811061081b5761081a611db8565b5b90600052602060002090600502016040518060a00160405290816000820160009054906101000a900473ffffffffffffffffffffffffffffffffffffffff1673ffffffffffffffffffffffffffffffffffffffff1673ffffffffffffffffffffffffffffffffffffffff16815260200160018201805461089a90611a3f565b80601f01602080910402602001604051908101604052809291908181526020018280546108c690611a3f565b80156109135780601f106108e857610100808354040283529160200191610913565b820191906000526020600020905b8154815290600101906020018083116108f657829003601f168201915b5050505050815260200160028201805461092c90611a3f565b80601f016020809104026020016040519081016040528092919081815260200182805461095890611a3f565b80156109a55780601f1061097a576101008083540402835291602001916109a5565b820191906000526020600020905b81548152906001019060200180831161098857829003601f168201915b5050505050815260200160038201548152602001600482015481525050915050610a3f565b80806109d590611eb0565b915050610750565b506040518060a00160405280600073ffffffffffffffffffffffffffffffffffffffff16815260200160405180602001604052806000815250815260200160405180602001604052806000815250815260200160008152602001600081525090505b9392505050565b6000600180549050905090565b60606000805480602002602001604051908101604052809291908181526020016000905b82821015610c3757838290600052602060002090600502016040518060a00160405290816000820160009054906101000a900473ffffffffffffffffffffffffffffffffffffffff1673ffffffffffffffffffffffffffffffffffffffff1673ffffffffffffffffffffffffffffffffffffffff168152602001600182018054610b0090611a3f565b80601f0160208091040260200160405190810160405280929190818152602001828054610b2c90611a3f565b8015610b795780601f10610b4e57610100808354040283529160200191610b79565b820191906000526020600020905b815481529060010190602001808311610b5c57829003601f168201915b50505050508152602001600282018054610b9290611a3f565b80601f0160208091040260200160405190810160405280929190818152602001828054610bbe90611a3f565b8015610c0b5780601f10610be057610100808354040283529160200191610c0b565b820191906000526020600020905b815481529060010190602001808311610bee57829003601f168201915b505050505081526020016003820154815260200160048201548152505081526020019060010190610a77565b50505050905090565b60008211610c83576040517f08c379a0000000000000000000000000000000000000000000000000000000008152600401610c7a90611984565b60405180910390fd5b60008111610cc6576040517f08c379a0000000000000000000000000000000000000000000000000000000008152600401610cbd906119f0565b60405180910390fd5b60016040518060a001604052803373ffffffffffffffffffffffffffffffffffffffff16815260200186815260200185815260200184815260200183815250908060018154018082558091505060019003906000526020600020906005020160009091909190915060008201518160000160006101000a81548173ffffffffffffffffffffffffffffffffffffffff021916908373ffffffffffffffffffffffffffffffffffffffff1602179055506020820151816001019081610d8a9190611c1c565b506040820151816002019081610da09190611c1c565b50606082015181600301556080820151816004015550503373ffffffffffffffffffffffffffffffffffffffff167f39ba3a5e788da1d4e0c6d92f7c286ddabd0b105c0f8fb4b39fac8304ec50eea4848484604051610e0193929190611d27565b60405180910390a250505050565b60606001805480602002602001604051908101604052809291908181526020016000905b82821015610ff357838290600052602060002090600502016040518060a00160405290816000820160009054906101000a900473ffffffffffffffffffffffffffffffffffffffff1673ffffffffffffffffffffffffffffffffffffffff1673ffffffffffffffffffffffffffffffffffffffff168152602001600182018054610ebc90611a3f565b80601f0160208091040260200160405190810160405280929190818152602001828054610ee890611a3f565b8015610f355780601f10610f0a57610100808354040283529160200191610f35565b820191906000526020600020905b815481529060010190602001808311610f1857829003601f168201915b50505050508152602001600282018054610f4e90611a3f565b80601f0160208091040260200160405190810160405280929190818152602001828054610f7a90611a3f565b8015610fc75780601f10610f9c57610100808354040283529160200191610fc7565b820191906000526020600020905b815481529060010190602001808311610faa57829003601f168201915b505050505081526020016003820154815260200160048201548152505081526020019060010190610e33565b50505050905090565b60008080549050905090565b6040518060a00160405280600073ffffffffffffffffffffffffffffffffffffffff168152602001606081526020016060815260200160008152602001600081525090565b6040518060a00160405280600073ffffffffffffffffffffffffffffffffffffffff168152602001606081526020016060815260200160008152602001600081525090565b6000604051905090565b600080fd5b600080fd5b600080fd5b600080fd5b6000601f19601f8301169050919050565b7f4e487b7100000000000000000000000000000000000000000000000000000000600052604160045260246000fd5b6110f9826110b0565b810181811067ffffffffffffffff82111715611118576111176110c1565b5b80604052505050565b600061112b611092565b905061113782826110f0565b919050565b600067ffffffffffffffff821115611157576111566110c1565b5b611160826110b0565b9050602081019050919050565b82818337600083830152505050565b600061118f61118a8461113c565b611121565b9050828152602081018484840111156111ab576111aa6110ab565b5b6111b684828561116d565b509392505050565b600082601f8301126111d3576111d26110a6565b5b81356111e384826020860161117c565b91505092915050565b6000819050919050565b6111ff816111ec565b811461120a57600080fd5b50565b60008135905061121c816111f6565b92915050565b6000806000806080858703121561123c5761123b61109c565b5b600085013567ffffffffffffffff81111561125a576112596110a1565b5b611266878288016111be565b945050602085013567ffffffffffffffff811115611287576112866110a1565b5b611293878288016111be565b93505060406112a48782880161120d565b92505060606112b58782880161120d565b91505092959194509250565b600073ffffffffffffffffffffffffffffffffffffffff82169050919050565b60006112ec826112c1565b9050919050565b6112fc816112e1565b811461130757600080fd5b50565b600081359050611319816112f3565b92915050565b600080600080608085870312156113395761133861109c565b5b60006113478782880161130a565b945050602085013567ffffffffffffffff811115611368576113676110a1565b5b611374878288016111be565b93505060406113858782880161120d565b92505060606113968782880161120d565b91505092959194509250565b6000806000606084860312156113bb576113ba61109c565b5b600084013567ffffffffffffffff8111156113d9576113d86110a1565b5b6113e5868287016111be565b93505060206113f68682870161120d565b92505060406114078682870161120d565b9150509250925092565b61141a816112e1565b82525050565b600081519050919050565b600082825260208201905092915050565b60005b8381101561145a57808201518184015260208101905061143f565b60008484015250505050565b600061147182611420565b61147b818561142b565b935061148b81856020860161143c565b611494816110b0565b840191505092915050565b6114a8816111ec565b82525050565b600060a0830160008301516114c66000860182611411565b50602083015184820360208601526114de8282611466565b915050604083015184820360408601526114f88282611466565b915050606083015161150d606086018261149f565b506080830151611520608086018261149f565b508091505092915050565b60008115159050919050565b6115408161152b565b82525050565b6000604082019050818103600083015261156081856114ae565b905061156f6020830184611537565b9392505050565b600060a08301600083015161158e6000860182611411565b50602083015184820360208601526115a68282611466565b915050604083015184820360408601526115c08282611466565b91505060608301516115d5606086018261149f565b5060808301516115e8608086018261149f565b508091505092915050565b6000602082019050818103600083015261160d8184611576565b905092915050565b61161e816111ec565b82525050565b60006020820190506116396000830184611615565b92915050565b600081519050919050565b600082825260208201905092915050565b6000819050602082019050919050565b600060a0830160008301516116836000860182611411565b506020830151848203602086015261169b8282611466565b915050604083015184820360408601526116b58282611466565b91505060608301516116ca606086018261149f565b5060808301516116dd608086018261149f565b508091505092915050565b60006116f4838361166b565b905092915050565b6000602082019050919050565b60006117148261163f565b61171e818561164a565b9350836020820285016117308561165b565b8060005b8581101561176c578484038952815161174d85826116e8565b9450611758836116fc565b925060208a01995050600181019050611734565b50829750879550505050505092915050565b600060208201905081810360008301526117988184611709565b905092915050565b600081519050919050565b600082825260208201905092915050565b6000819050602082019050919050565b600060a0830160008301516117e46000860182611411565b50602083015184820360208601526117fc8282611466565b915050604083015184820360408601526118168282611466565b915050606083015161182b606086018261149f565b50608083015161183e608086018261149f565b508091505092915050565b600061185583836117cc565b905092915050565b6000602082019050919050565b6000611875826117a0565b61187f81856117ab565b935083602082028501611891856117bc565b8060005b858110156118cd57848403895281516118ae8582611849565b94506118b98361185d565b925060208a01995050600181019050611895565b50829750879550505050505092915050565b600060208201905081810360008301526118f9818461186a565b905092915050565b600082825260208201905092915050565b7f5175616e74697479206d7573742062652067726561746572207468616e207a6560008201527f726f000000000000000000000000000000000000000000000000000000000000602082015250565b600061196e602283611901565b915061197982611912565b604082019050919050565b6000602082019050818103600083015261199d81611961565b9050919050565b7f5072696365206d7573742062652067726561746572207468616e207a65726f00600082015250565b60006119da601f83611901565b91506119e5826119a4565b602082019050919050565b60006020820190508181036000830152611a09816119cd565b9050919050565b7f4e487b7100000000000000000000000000000000000000000000000000000000600052602260045260246000fd5b60006002820490506001821680611a5757607f821691505b602082108103611a6a57611a69611a10565b5b50919050565b60008190508160005260206000209050919050565b60006020601f8301049050919050565b600082821b905092915050565b600060088302611ad27fffffffffffffffffffffffffffffffffffffffffffffffffffffffffffffffff82611a95565b611adc8683611a95565b95508019841693508086168417925050509392505050565b6000819050919050565b6000611b19611b14611b0f846111ec565b611af4565b6111ec565b9050919050565b6000819050919050565b611b3383611afe565b611b47611b3f82611b20565b848454611aa2565b825550505050565b600090565b611b5c611b4f565b611b67818484611b2a565b505050565b5b81811015611b8b57611b80600082611b54565b600181019050611b6d565b5050565b601f821115611bd057611ba181611a70565b611baa84611a85565b81016020851015611bb9578190505b611bcd611bc585611a85565b830182611b6c565b50505b505050565b600082821c905092915050565b6000611bf360001984600802611bd5565b1980831691505092915050565b6000611c0c8383611be2565b9150826002028217905092915050565b611c2582611420565b67ffffffffffffffff811115611c3e57611c3d6110c1565b5b611c488254611a3f565b611c53828285611b8f565b600060209050601f831160018114611c865760008415611c74578287015190505b611c7e8582611c00565b865550611ce6565b601f198416611c9486611a70565b60005b82811015611cbc57848901518255600182019150602085019450602081019050611c97565b86831015611cd95784890151611cd5601f891682611be2565b8355505b6001600288020188555050505b505050505050565b6000611cf982611420565b611d038185611901565b9350611d1381856020860161143c565b611d1c816110b0565b840191505092915050565b60006060820190508181036000830152611d418186611cee565b9050611d506020830185611615565b611d5d6040830184611615565b949350505050565b600081905092915050565b6000611d7b82611420565b611d858185611d65565b9350611d9581856020860161143c565b80840191505092915050565b6000611dad8284611d70565b915081905092915050565b7f4e487b7100000000000000000000000000000000000000000000000000000000600052603260045260246000fd5b60008154611df481611a3f565b611dfe8186611d65565b94506001821660008114611e195760018114611e2e57611e61565b60ff1983168652811515820286019350611e61565b611e3785611a70565b60005b83811015611e5957815481890152600182019150602081019050611e3a565b838801955050505b50505092915050565b6000611e768284611de7565b915081905092915050565b7f4e487b7100000000000000000000000000000000000000000000000000000000600052601160045260246000fd5b6000611ebb826111ec565b91507fffffffffffffffffffffffffffffffffffffffffffffffffffffffffffffffff8203611eed57611eec611e81565b5b600182019050919050565b600081905092915050565b60008190508160005260206000209050919050565b60008154611f2581611a3f565b611f2f8186611ef8565b94506001821660008114611f4a5760018114611f5f57611f92565b60ff1983168652811515820286019350611f92565b611f6885611f03565b60005b83811015611f8a57815481890152600182019150602081019050611f6b565b838801955050505b50505092915050565b6000611fa78284611f18565b91508190509291505056fea2646970667358221220cd88468eff9b3a0aa18493a7ac686e7ce16cbd2b8d31e9ebd5475cdcaee97bf964736f6c63430008140033",
  "linkReferences": {},
  "deployedLinkReferences": {}
}